:020000040800F2
:10000000F814012011260008E9230008EB2300085A
:10001000EF230008F3230008F72300080000000086
:10002000000000000000000000000000FB230008AA
:10003000FD230008000000009980000851260008F8
:100040002B2600082B2600082B2600082B2600084C
:100050002B2600082B2600082B2600082B2600083C
:100060002B2600082B2600082B2600082B2600082C
:100070002B2600082B2600082B2600082B2600081C
:100080002B2600082B2600082B2600082B2600080C
:100090002B2600082B2600082B2600082B260008FC
:1000A0002B2600082B2600082B2600082B260008EC
:1000B0002B260008CF1200082B2600082B2600084C
:1000C0002B2600082B2600082B2600082B260008CC
:1000D0002B260008B73E010877CF00080359010816
:1000E0008BA201082B2600082B2600082B260008CF
:1000F0002B2600082B2600082B2600082B2600089C
:100100002B2600082B2600082B2600082B2600088B
:10011000994D0108D92601082B26000899A6000848
:100120002B2600082B2600082B2600082B2600086B
:100130002B2600082B2600082B2600082B2600085B
:100140002B2600082B2600082B2600082B2600084B
:100150002B2600082B2600082B2600080B40010840
:100160002B2600082B2600082B2600082B2600082B
:100170002B2600082B2600082B2600082B2600081B
:100180002B2600082B26000800F002F800F05CF88F
:100190000AA090E8000C82448344AAF10107DA45E2
:1001A00001D100F051F8AFF2090EBAE80F0013F0D8
:1001B000010F18BFFB1A43F001031847F49A02001D
:1001C000149B02000A444FF0000C10F8013B13F09E
:1001D000070408BF10F8014B1D1108BF10F8015BA0
:1001E000641E05D010F8016B641E01F8016BF9D193
:1001F00013F0080F1EBF10F8014BAD1C0C1B09D1EA
:100200006D1E58BF01F801CBFAD505E014F8016B5B
:1002100001F8016B6D1EF9D59142D6D370470000ED
:100220000023002400250026103A28BF78C1FBD8FF
:10023000520728BF30C148BF0B6070471FB528F078
:10024000BCF91FBD10B510BD24F0A4FC1146FFF78A
:10025000F5FF01F07AFE24F0C2FC03B4FFF7F2FFD1
:1002600003BC24F0C5FC00002DED028BAEE006209F
:100270000AF07DF9FE4880ED000AFE48008880B94A
:10028000FD4801880088401CFB4A1080022902DDDD
:100290000120F84908809FEDF90AF54880ED000A31
:1002A00091E0F348006828F017F941EC180B9FED36
:1002B000F40B53EC102B27F0DDFD05D2F24800883B
:1002C000401CF149088004E0EF484088401CEE499A
:1002D0004880E748006828F0FFF841EC180B9FEDD4
:1002E000EB0B53EC102B27F0C5FD04D29FEDE30A76
:1002F000DF4880ED000A002016F03FFD002016F0D8
:10030000A0FCE44801780078401CE24A1070032900
:1003100006DB00201146087016F006FD1AF023FDDA
:10032000D34890ED000A18F0BEFADB4890ED070ABA
:10033000DA4880ED040AD84890ED080AD74880EDE5
:10034000050AD54890ED090AD44880ED060AD2483E
:1003500090ED0D0AD14880ED070ACF4890ED0E0AC6
:10036000CE4880ED080ACC4890ED0F0ACB4880EDCE
:10037000090AC94890ED130AC84880ED0A0AC64820
:1003800090ED140AC54880ED0B0AC34890ED150A9C
:10039000C24880ED0C0AC04890ED4B0ABF4880ED82
:1003A000240ABD4890ED4C0ABC4880ED250ABA48A5
:1003B00090ED4D0AB94880ED260AB74890ED580AED
:1003C000B64880ED2E0A052002F09BF94FE72DED8F
:1003D000088BEFE000200AF0CAF8B14880ED000A6F
:1003E000B048007880B9B04801780078401CAE4A27
:1003F0001070022902DD0120AA4908709FEDAB0AA6
:10040000A74880ED000AC6E0A548006828F064F817
:1004100041EC180B9FEDA60B53EC102B27F02AFD97
:1004200004D89FEDA20A9E4880ED000A9B48D0EDBB
:100430000C0AB0EE600AF6EE000A1CF0E9FE10EEBF
:10044000104A204628F048F841EC1B0B9FED9A0B10
:1004500053EC102B27F04AFD41EC1A0B27F02EFA33
:1004600008EE100A8D48D0ED0B0AB0EE600AF6EEE9
:10047000000A1CF0CDFEF0EE408A8848D0ED0A0A52
:10048000B0EE600AF6EE000A1CF0C2FEB0EE409A32
:100490008248D0ED060AB0EE603AD0ED050AF0EEE3
:1004A000602AD0ED040AB0EE602A7D48D0ED000A43
:1004B000B6EE001A60EE810AB0EE600A804A814909
:1004C0008148F0EE481AB0EE681AF0EE490A1DF0C5
:1004D0001DFE7E4890F84800012838D17B4890F8EE
:1004E0004900012833D1794890ED020AB5EEC00ADF
:1004F000F1EE10FA2BD090ED020A7148D0ED000A0F
:1005000030EE600A10EE101A084627F0E5FF41ECC5
:10051000190BB0EE490AF0EE690A25F029FCB0EE9D
:10052000408AF0EE608A9FED6A0B53EC102B51EC81
:10053000180B27F0D9FD0AD2644890ED020A6048F2
:10054000D0ED000A30EE600A634880ED000A5C4896
:10055000D0ED000A604890ED001A70EE810AB0EE0E
:10056000600A1CF08FFE5D4880ED000A5C4880ED5B
:10057000000A544890ED000A5A4880ED000A5A4893
:1005800080ED000A504890ED000A584880ED000ABE
:10059000574880ED000A57480078012805D1564891
:1005A0000078012801D10AF051F922F096F80520CF
:1005B00002F0A7F80EE72DED028BD2E0052009F03E
:1005C000D6FF4E4880ED000A4D4801780078401C67
:1005D0004B4A1070022909DD4A48007830B965207D
:1005E00011460870012047490870BAE04348006886
:1005F00027F072FF41EC180B9FED240B53EC102BEE
:1006000027F038FC04D29FED400A3C4880ED000AF8
:10061000214890F8500148BB3C4890ED010AF8EEA3
:10062000080AB4EEE00AF1EE10FA02D2B8EE080AB7
:100630000FE0364890ED010AF0EE080AB4EEE00A49
:10064000F1EE10FA02DDB0EE080A02E02F4890ED5C
:10065000010AB0EE403A2D4890ED000AF8EE080A83
:10066000B4EEE00AF1EE10FA55D251E076E0000067
:100670000400002024040020260400200AD7A33B05
:10068000FA7E6ABC7493783F0C0000208DEDB5A013
:10069000F7C6C03E22040020C0DF0020BCEA0020D4
:1006A000280000202B0400202C0400200AD7233C23
:1006B000F168E388B5F8F43E9A9999999999F13FD0
:1006C000100000201400002018000020A8D60020F0
:1006D000000000000000244030040020CC10002066
:1006E000D8100020C8100020D4100020C410002012
:1006F000D0100020A1050020A20500203C0300200E
:1007000038040020370400200AD7A33CC4950020F9
:10071000B8EE080A0FE0F94890ED000AF0EE080A7A
:10072000B4EEE00AF1EE10FA02DDB0EE080A02E0E3
:10073000F24890ED000AF0EE402AF04890ED032ACE
:10074000D0ED021AEE48D0ED003AEE4890ED001AD6
:10075000DFEDED0A9FEDEC0A20F0D6F80A2001F05B
:10076000D0FF2BE706E01FED180A21F070FC1420E3
:1007700001F0C7FFF7E70AE0E448007810B9E44861
:10078000007808B119F0E2FA462001F0BAFFF3E769
:1007900010B52DED048B0D2009F0E9FEDFEDDD0A2B
:1007A00020EE200ABCEEC00AB0EE408ADA4890ED96
:1007B0000B0AF0EE408A90ED0A0AB0EE409A90EDF6
:1007C0000C0AB1EE400AF0EE409AB8EE480AD3485F
:1007D000D0ED000A20EE200ABCEEC00AD04880ED21
:1007E000000AD04890ED060ACF48D0ED000A80EE0E
:1007F000201AB7EE000A61EE000ACC4890ED001A0C
:10080000CB4890ED000A10EE810ACA4880ED000A3C
:10081000C448D0ED070AC44890ED001A80EE810A62
:10082000F7EE000A60EE200AC04890ED011AC048B9
:1008300090ED010A10EE810ABF4880ED000ABF4822
:1008400090ED000A20EE280ABD48D0ED000A20EE07
:10085000200AD0ED000AB7EE001A71EE600AB9481E
:1008600090ED001A01EE200A80ED000AB34890EDE9
:10087000010A20EE090AB248D0ED000A20EE200A53
:10088000D0ED000AB7EE001A71EE600AAE4890EDA6
:10089000001A01EE200A80ED000AA84890ED020A35
:1008A00020EE290AA648D0ED000A20EE200AD0ED5D
:1008B000000AB7EE001A71EE600AA44890ED001A23
:1008C00001EE200A80ED000ABDEC048B10BD2DED79
:1008D0000C8B84B0FEE39E48007820B99FED9D0A02
:1008E000B0EE408A13E09C4890ED000AF1EE000A59
:1008F000B4EEE00AF1EE10FA04DDB1EE000AB0EE5B
:10090000408A04E0944890ED000AB0EE408AFFF778
:100910003FFF844890F8250028BB904880689049A4
:10092000886000218E4A03C28C4890ED050A8C48ED
:1009300080ED050A894890ED060A894880ED060A8F
:10094000864890ED070A864880ED070A834890EDB7
:10095000030A834880ED030A804890ED040A80482A
:1009600080ED040A21E06E4800687D498860754882
:1009700090ED000A084680ED050A734890ED000AE4
:10098000084680ED060A714890ED000A084680EDA1
:10099000070A684890ED000A084680ED030A664899
:1009A00090ED000A084680ED040A082009F0DFFDFA
:1009B0006C4880ED000A006827F08EFD41EC190BB1
:1009C0009FED690B53EC102B27F054FA04D21FED66
:1009D000C90A644880ED000AB0EE480A60481AF07F
:1009E0001FFC63480078A0B36148007A88BB604868
:1009F000407A70BB5F4890ED150A5F48D0ED000A61
:100A000020EE200A5D4880ED000A5A4890ED140A55
:100A1000B1EE400A5848D0ED000A20EE200A5748AF
:100A200080ED010A534890ED150A5348D0ED000AB5
:100A300020EE200A8DED020A4E4890ED140AB1EE28
:100A4000400A4D48D0ED000A20EE200A8DED030A41
:100A500030E1FFE74A4890ED000A484880ED000A7F
:100A6000474890ED010A454880ED010A4448D0ED21
:100A7000020A444890ED001A60EE810ABFEE001AA7
:100A8000F4EEC10AF1EE10FA02D2FFEE000A19E00C
:100A90003B48D0ED020A3B4890ED001A60EE810A17
:100AA000B7EE001AF4EEC10AF1EE10FA02DDF7EE2D
:100AB000000A07E03248D0ED020A324890ED001AF1
:100AC00060EE810AB0EE600A2648D0ED000A2E489A
:100AD00018F0D6FF8DED020A2948D0ED030A294807
:100AE00090ED001A60EE810ABFEE001AF4EEC10A22
:100AF000F1EE10FA4AD2FFEE000A61E0C495002040
:100B00003C030020CC10002000000000000000206A
:100B10008A07002000247449BCEA002080030020DA
:100B20005C030020F0C3002040030020600300208D
:100B300074030020440300204803002068030020C1
:100B40007C0300204C0300205003002054030020AD
:100B50007E0B0020FA7E2A3F7414002078DD0020EE
:100B6000D895002000040020FCA9F1D24D62503F2E
:100B7000609C0020E8D7002004040020B4950020E9
:100B80002CFA0020600C0020CCF70020FE48D0EDAD
:100B9000030AFE4890ED001A60EE810AB7EE001AD3
:100BA000F4EEC10AF1EE10FA02DDF7EE000A07E0FA
:100BB000F548D0ED030AF54890ED001A60EE810A81
:100BC000B0EE600AF248D0ED000AF24818F058FF83
:100BD0008DED030A9FEDF00B25F08AFFB0EE40CAC1
:100BE000F0EE60CA9DED030A10EE101A084627F0D9
:100BF00073FC41EC1D0B53EC1C2B27F077F941ECF7
:100C00001A0B9FEDE50B24F0A7FFB0EE40CAF0EE03
:100C100060CA9DED020A10EE101A084627F05CFC2F
:100C200041EC1D0B53EC1C2B27F060F941EC1B0B26
:100C300053EC1A2B26F074FE41EC190B26F03EFE05
:100C4000D74988609FEDD40B25F052FFB0EE40CA23
:100C5000F0EE60CA9DED020A10EE101A084627F069
:100C60003BFC41EC1D0B53EC1C2B27F03FF941ECF6
:100C7000190B9FEDC90B24F06FFFB0EE40CAF0EEE8
:100C800060CA9DED030A10EE101A084627F024FCF6
:100C900041EC1D0B53EC1C2B27F028F941EC1B0BEE
:100CA00053EC192B27F02EFB41EC1A0B26F006FE15
:100CB000BB49C860BB4890ED040A10EE101A084604
:100CC00027F00AFC41EC1A0B9FEDB70B53EC102BED
:100CD00026F0E2FE41EC190B26F0F0FDB449086065
:100CE000B04890ED050A10EE101A084627F0F4FB04
:100CF00041EC1A0B9FEDAC0B53EC102B26F0CCFE05
:100D000041EC190B26F0DAFDA9494860A54890EDA1
:100D1000060A10EE101A084627F0DEFB41EC1A0B0B
:100D20009FEDA10B53EC102B26F0B6FE41EC190BF6
:100D300026F0C4FD9E498860084690ED000A10EE3A
:100D4000101A084627F0C8FB41EC1A0BB0EE4A0A0D
:100D5000F0EE6A0A25F00CF8B0EE409AF0EE609AD8
:100D60009FED940B53EC102B51EC190B27F082F8EC
:100D70007DD28F4890ED010A10EE101A084627F038
:100D8000ABFB41EC1A0BB0EE4A0AF0EE6A0A24F013
:100D9000EFFFB0EE409AF0EE609A9FED860B53ECB9
:100DA000102B51EC190B27F065F8E1D2804890ED3B
:100DB000010A8248D0ED020A20EE200A7C48D0EDDC
:100DC000020A7E4890ED011A00EEC10A7C4880EDCF
:100DD000000A774890ED020A7848D0ED000A20EE2C
:100DE000200A7348D0ED000A744890ED021A00EE14
:100DF000C10A734880ED010A704890ED020A6C4800
:100E0000D0ED020A20EE200A6C48D0ED000A6848B6
:100E100090ED001A00EE810A6848D0ED010A64489E
:100E200090ED011A00EE810A654880ED020A90ED0E
:100E3000000A10EE101A084627F04EFB41EC1A0B80
:100E4000B0EE4A0AF0EE6A0A24F092FFB0EE409A41
:100E5000F0EE609A9FED5B0B53EC102B51EC190BED
:100E600027F008F884D2564890ED010A00E0DFE14F
:100E700010EE101A084627F02FFB41EC1A0BB0EECB
:100E80004A0AF0EE6A0A24F073FFB0EE409AF0EEE0
:100E9000609A9FED4C0B53EC102B51EC190B26F084
:100EA000E9FFDFD2464890ED000AB1EE400A10EEAD
:100EB000101A084627F010FB41EC1A0B9FED430B6C
:100EC00053EC102B27F012F841EC190B26F0F6FC2E
:100ED000404908603A4890ED010AB1EE400A10EE30
:100EE000101A084627F0F8FA41EC1A0B9FED370B61
:100EF00053EC102B26F0FAFF41EC190B26F0DEFC28
:100F0000344948602E4890ED020AF7EE000A30EEB0
:100F1000600A10EE101A084627F0DEFA41EC1A0BB0
:100F20009FED2A0B53EC102B26F0E0FF41EC190B40
:100F300026F0C4FC274988602748007800287CD127
:100F400026480078002878D125480078002874D1F8
:100F5000084690ED000A2348D0ED000A30EE600A02
:100F600010EE101A084627F0B7FA41EC1C0B9FED63
:100F70001E0B53EC102B26F0B9FF41EC1A0B19484D
:100F800090ED000A34E000002CFA0020600C0020F4
:100F900000040020E0F70020B6F3FDD478E9084013
:100FA000C4950020BCEA0020000000000000B04012
:100FB000249700200000000000000C4008FC0020E6
:100FC00030970020000000000000F83F3D0AD7A342
:100FD00070BD23403C9700208A0700208403002036
:100FE0000000002018970020669DBD2B30B6CB3F37
:100FF00010EE101A084627F06FFA41EC1B0B53EC69
:101000001A2B26F08DFC41EC190B26F057FCFE49FB
:101010000860FE4890ED010A0846D0ED010A30EE66
:10102000600A10EE101A084627F056FA41EC1C0B25
:101030001FED130B53EC102B00E042E026F056FF9F
:1010400041EC1A0BF04890ED010A10EE101A084618
:1010500027F042FA41EC1B0B53EC1A2B26F060FCF4
:1010600041EC190B26F02AFCE7494860E74890ED6F
:10107000020A0846D0ED020A30EE600A10EE101A9D
:10108000084627F029FA41EC1C0B1FED290B53EC05
:10109000102B26F02BFF41EC1A0BDB4890ED020AD7
:1010A00010EE101A084627F017FA41EC1B0B53EC10
:1010B0001A2B26F035FC41EC190B26F0FFFBD24928
:1010C0008860D248D0ED000ACF4890ED001A70EE4B
:1010D000C10A00E0F9E0B0EE600A0521084618F008
:1010E00079FACB4880ED000AC848D0ED010AC6481D
:1010F00090ED011A70EEC10AB0EE600A05210620DB
:1011000018F068FAC24880ED010AC048D0ED020A22
:10111000BD4890ED021A70EEC10AB0EE600A0521DA
:10112000072018F057FABA4880ED020AD0ED000AFD
:10113000B0EE600AB748D0ED000AB74818F0A0FC3E
:10114000B64880ED000AB248D0ED010AB0EE600A60
:10115000B048D0ED000AB048143018F091FCAF4808
:1011600080ED010AAA48D0ED020AB0EE600AA94853
:10117000D0ED000AA848283018F082FCA74880ED7E
:10118000020AA24890ED000A10EE101A084627F055
:10119000A3F941EC1A0BB0EE4A0AF0EE6A0A24F009
:1011A000E7FDB0EE409AF0EE609A9FED9D0B53EC98
:1011B000102B51EC190B26F05DFE39D2934890EDBF
:1011C000010A10EE101A084627F086F941EC1A0BB6
:1011D000B0EE4A0AF0EE6A0A24F0CAFDB0EE409A78
:1011E000F0EE609A9FED8E0B53EC102B51EC190B27
:1011F00026F040FE1CD2894890ED000A8A4880ED16
:10120000000A864890ED010A874880ED010A83486C
:1012100090ED020A844880ED020A90ED000A8348AE
:1012200080ED000A804890ED010A804880ED010AB7
:101230007F484068D0ED010AB0EE600A7D48017831
:10124000102018F0C7F98DED000A7B484068D0EDFA
:10125000010AB0EE600A77480178112018F0BAF957
:101260008DED010A754890ED020A7548D0ED000A2F
:10127000B7EE001A71EE600A20EE200ADDED000ADA
:1012800090ED001A01EE200A6C4880ED020A90ED04
:10129000030A6B48D0ED000AB7EE001A71EE600A3F
:1012A00020EE200ADDED010A90ED001A01EE200A81
:1012B000624880ED030A0A200AF099FA0A200AF02F
:1012C00047FB0A2001F01DFA00BFFFF704BB2DE920
:1012D000F0412DED068B86B004F033F90121594819
:1012E00002F0FBFE01287CD10E2009F040F956489F
:1012F00080ED000A5548008880B95548018800886B
:10130000401C534A1080022902DD01204F49088009
:101310009FED500A4C4880ED000AFDE34E4890F8DE
:101320006000A0B14C4991F8640091ED1D2AF0EEE7
:10133000421A91ED1C2AB0EE421A91ED1B2AF0EEF2
:10134000420A91ED1A2AB0EE420A15F02AFA3E48F6
:10135000006827F0C1F841EC180B9FED400B53ECEF
:10136000102B26F087FD04D29FED3E0A364880ED13
:10137000000A3D493D4803F0E8FE98B13A493B4830
:1013800003F0FFFE10F03AFD10F0F9FC012280217D
:10139000374802F0AFF837480088801C81B23348E4
:1013A00009F02AFA00203449086001203349087006
:1013B0003148006808B10120087031480188008870
:1013C000401C2F4A10800129A7DD0020114608800B
:1013D0002A4800780028A0D02A48007807287DD223
:1013E00000E0B7E3DFE800F00499FDFCFBFAF90048
:1013F000254890ED000ABDEEC00A10EE100A01B2B9
:10140000214890ED010A41E0189700203C97002008
:10141000489700200004002018F70020549700206F
:101420003333333333332140A8950020C495002053
:1014300008140020850300201014002014C600208A
:1014400088030020000400400C0400204804002011
:10145000460400200AD7233BA8D600208DEDB5A076
:10146000F7C6C03E0AD7A33B00002020A060024080
:1014700000440040B005002098D700208A070020D3
:101480003E04002008040020580D0120BDEEC00AD3
:1014900010EE100A00B20023FE4A92ED010ADFEDC1
:1014A000FE0A20EE200ABDEEC00A10EE102A12B28B
:1014B000CDE90123CDE90301F848406890ED010A28
:1014C000B1EE400ADFEDF40A20EE200ABDEEC00ABC
:1014D00010EE100A00B20090EE4800E034E390ED08
:1014E000000ADFEDEF0A20EE200ABDEEC00A10EE82
:1014F000100A02B2E948406890ED000ADFEDE80A00
:1015000020EE200ABDEEC00A10EE100A01B2E54836
:10151000008800B20CF08BFD17E3E34890ED030A5E
:10152000DFEDDD0A20EE200ABDEEC00A10EE100A43
:1015300001B2DD4890ED020ADFEDD70A20EE200A65
:10154000BDEEC00A10EE100A00B20023D74A92ED99
:10155000060ADFEDD30A20EE200ABDEEC00A10EE27
:10156000102A12B2CDE90123CDE90301CF4890ED55
:10157000050ADFEDCB0A20EE200ABDEEC00A10EE10
:10158000100A00B20090C94890ED040AD0ED060A96
:1015900030EE600ADFEDC20A20EE200ABDEEC00A7E
:1015A00010EE100A03B2C14890ED040ADFEDBC0A48
:1015B00020EE200ABDEEC00A10EE100A02B2BB48AF
:1015C00090ED030ADFEDB60A20EE200ABDEEC00A58
:1015D00010EE100A01B2002004E04AE2C5E11CE16D
:1015E00098E002E00CF023FDAFE2B14890ED021B61
:1015F000B0EE410AF0EE610A9FEDAE1B53EC112BE9
:1016000051EC100B26F072FC41EC180B26F0D8FBC5
:1016100004B2AA4890ED021BB0EE410AF0EE610A56
:101620009FEDA41B53EC112B51EC100B26F05EFC2C
:1016300041EC180B26F0C4FB05B2A04890ED081B46
:10164000B0EE410AF0EE610A9FED9A1B53EC112BAC
:1016500051EC100B26F04AFC41EC180B26F0B0FBC5
:1016600006B2964890ED001BB0EE410AF0EE610A1A
:101670009FED901B53EC112B51EC100B26F036FC18
:1016800041EC180B26F09CFB07B28C4890ED061B32
:10169000B0EE410AF0EE610A9FED861B53EC112B70
:1016A00051EC100B26F022FC41EC180B26F088FBC5
:1016B0000FFA80F8824890ED000ADFED770A20EEFD
:1016C000200ABDEEC00A10EE100A00B200227149D5
:1016D00091ED010ADFED700A20EE200ABDEEC00A8E
:1016E00010EE101A09B2CDE90051CDE903040292BF
:1016F000744890ED000ADFED680A20EE200ABDEE86
:10170000C00A10EE100A01B233463A4640460CF0C9
:101710008EFC1AE26C4890ED001BB0EE410AF0EE30
:10172000610A9FED641B53EC112B51EC100B26F05A
:10173000DDFB41EC180B26F043FB04B2624890ED50
:10174000021BB0EE410AF0EE610A9FED5A1B53EC0A
:10175000112B51EC100B26F0C9FB41EC180B26F0B5
:101760002FFB05B2594890ED001BB0EE410AF0EE98
:10177000610A9FED501B53EC112B51EC100B26F01E
:10178000B5FB41EC180B26F01BFB06B24F4890ED61
:10179000021BB0EE410AF0EE610A9FED461B53ECCE
:1017A000112B51EC100B26F0A1FB41EC180B26F08D
:1017B00007FB07B2464890ED090ADFED390A20EE33
:1017C000200ABDEEC00A10EE100A00B2CDE9016099
:1017D000CDE903543E4890ED080ADFED2F0A20EED4
:1017E000200ABDEEC00A10EE100A00B2009039487F
:1017F000D0F8A90000EE100ADFED270A20EE200A3B
:10180000BDEEC00A10EE100A01B23348008803B2E0
:101810003A4600200CF00BFC97E13048006826F0B7
:101820005BFE41EC1A0B9FED2E0B53EC102B26F0B8
:1018300033F941EC190B9FED1F0B53EC102B26F0E5
:1018400055FB41EC180B26F0BBFA04B21348406874
:1018500090ED010AB1EE400ADFED0F0A20EE200AFA
:10186000BDEEC00A10EE100A00B20C49496891EDB5
:10187000000ADFED090A20EE200ABDEEC00A10EED4
:10188000101A09B20022CDE90304CDE9012116485E
:101890002CE00000581500200000C8420014002071
:1018A00000007A44DC070020C4950020D895002071
:1018B000A00C0120000000000000594010FD002095
:1018C000C0150020F8030020980D0120700C0120A5
:1018D000A8D60020C0D10020E40B002094050020F1
:1018E0000000000000408F403812002090ED010AF7
:1018F0005FED170A20EE200ABDEEC00A10EE100AB6
:1019000000B2FE4D009095ED000A5FED1D0A20EE3D
:10191000200ABDEEC00A10EE105A2BB2F84D95ED1C
:10192000020A5FED230A20EE200ABDEEC00A10EE87
:10193000105A2AB2F34D95ED020A5FED290A20EE06
:10194000200ABDEEC00A10EE105A29B2ED4D95EDF9
:10195000010A5FED2F0A20EE200ABDEEC00A10EE4C
:10196000105A28B20CF063FBEFE0E74890ED081B3B
:10197000B0EE410AF0EE610A1FED321B53EC112B61
:1019800051EC100B26F0B2FA41EC180B26F018FAC5
:1019900005B2DD4890ED021BB0EE410AF0EE610A9F
:1019A0001FED3C1B53EC112B51EC100B26F09EFA53
:1019B00041EC180B26F004FA04B2D04890ED010A6D
:1019C0005FED4B0A20EE200ABDEEC00A10EE100AB1
:1019D00002B2CE4890ED070A5FED510A20EE200AD0
:1019E000BDEEC00A10EE100A01B2C84890ED060A1A
:1019F0005FED570A20EE200ABDEEC00A10EE100A75
:101A000000B2C24B93ED080A5FED5D0A20EE200A9A
:101A1000BDEEC00A10EE103A1BB2CDE9005302AB86
:101A200007C3B64B93ED000A5FED650A20EE200A6E
:101A3000BDEEC00A10EE103A1AB2B44B93ED1E0A76
:101A40005FED6B0A20EE200ABDEEC00A10EE103AE0
:101A500019B2AE4B93ED1D0A5FED710A20EE200A1C
:101A6000BDEEC00A10EE103A18B223460CF0DFFAB1
:101A70006BE0A74890ED020AF2EE040A20EE200A7D
:101A8000BDEEC00A10EE100A00B2A14991ED010AA4
:101A9000F2EE040A20EE200ABDEEC00A10EE101A83
:101AA00009B29B4A92ED000AF2EE040A20EE200AE7
:101AB000BDEEC00A10EE102A12B2964B93ED120A38
:101AC0005FED8B0A20EE200ABDEEC00A10EE103A40
:101AD0001BB2CDE90132CDE903108E4890ED170A13
:101AE0005FED930A20EE200ABDEEC00A10EE100A48
:101AF00000B2884A009092ED160A5FED990A20EE36
:101B0000200ABDEEC00A10EE102A13B27B4A92EDF5
:101B1000000A5FED9F0A00E018E020EE200ABDEE0B
:101B2000C00A10EE102A11B27A4A92ED130A5FED44
:101B3000A60A20EE200ABDEEC00A10EE102A10B24E
:101B400000220CF074FA00E000BF00BF01217248CF
:101B500002F0D4FA03F010FD06B0BDEC068BBDE830
:101B6000F0812DED028B3AE16C4908880988491C07
:101B70006A4B198026F06AF941EC180B9FED680B4F
:101B800053EC102B26F0B0FA02D200206649087000
:101B90006649888D898D491C644B998526F056F9D4
:101BA00041EC180B9FED620B53EC102B26F09CFAC6
:101BB00003D200205D4981F831005C49B1F87C0016
:101BC000B1F87C10491C8BB25849A1F87C3026F042
:101BD0003DF941EC180B9FED560B53EC102B26F002
:101BE00083FA03D20021514880F85E1052490888D8
:101BF0000988491C504B198026F028F941EC180B34
:101C00009FED4E0B53EC102B26F06EFA02D2002003
:101C10004C4908704C49B1F84C00B1F84C10491CC3
:101C2000494BA3F84C1026F011F941EC180B9FED2D
:101C3000430B53EC102B26F057FA03D200204249F5
:101C400081F849004049B1F84A00B1F84A10491CEE
:101C50003D4BA3F84A1026F0F9F841EC180B9FED24
:101C6000370B53EC102B26F03FFA03D200203649F5
:101C700081F848003449B1F86200B1F86210491C9B
:101C8000314BA3F8621026F0E1F841EC180B9FED00
:101C90002B0B53EC102B26F027FA03D200202A49F5
:101CA00081F860002949B1F84400B1F84410491C9A
:101CB000264BA3F8441026F0C9F841EC180B9FED11
:101CC0001F0B53EC102B26F00FFA03D200201F49F4
:101CD00081F826001E49B1F80100B1F80110491C35
:101CE0001B4BA3F8011026F0B1F841EC180B9FED47
:101CF000130B53EC102B26F0F7F92BE038120020D1
:101D0000B4DF0020DCD9002090FC0020ACC700200C
:101D1000A895002068C10020000400405207002060
:101D2000000000000000394050070020E8D70020E4
:101D30000000000000001440A40500200000000086
:101D400000002E40A2050020A8D60020F0C30020ED
:101D500096DF002002D200202F4908702F494888C2
:101D60004988491C2D4B598026F070F841EC180B1E
:101D70009FED2B0B53EC102B26F0B6F902D200206E
:101D800026490870284890ED020AB8EE400A80ED16
:101D9000030A002024498860244908880988491CCE
:101DA000224B198026F052F841EC180B1FED240B42
:101DB00053EC102B26F098F905D21D48007810B985
:101DC00001201B4908701A48007828B900201949D9
:101DD0008870487081F85001C82000F092FCC3E67A
:101DE000154A1278052A04D10022144B1A80124B8E
:101DF0001A70124A1288124B1B781A440F4B1A8021
:101E00000D4A1278521C0C4B1A70704770B504467C
:101E10000D4606F070FD70BD96DF002068C1002001
:101E2000000000000000344008DD00204C040020C9
:101E30004A040020C0DF00204E0400201C040020C3
:101E4000D004002084480088704783481238006816
:101E50008249086080480E38006848607E480A3829
:101E60000068886070477FB50446002500BF0020E9
:101E700004F089FA7A4908604FF48071794804F0D7
:101E800081FC7949086003A9002003F0E1FE77494D
:101E9000086003F07DFC03A875A10022764BCDE914
:101EA0000021029002220A21084605F0CCFD734968
:101EB000086003A97148006805F057FF03A870A1E6
:101EC0000022714BCDE900210290022205210A2057
:101ED00005F0B9FD6D49086003A96C48006805F07C
:101EE00044FF06F0B1F805460323694A002169481A
:101EF00005F070F90223684A0021684805F06AF984
:101F00000423674A0021674805F064F90523664AFF
:101F10000021664805F05EF90F23654A00216548F7
:101F200005F058F91023644A0021644805F052F97D
:101F30001323634A0021634805F04CF9142005F08F
:101F4000C9FB284606F084F87FBD1CB54FF4A0609D
:101F500000F002FCA82000F083FB08F04EFB06F026
:101F60007AFC642008F0F7FA08F003F906F0EEFFB7
:101F70004FF47A6008F0EFFA06F0D4F914F087FE17
:101F80000A2008F0E8FA09F0CDFD4FF4FA7008F0E5
:101F9000E2FA09F059F94C480AF07AF801204FF4B6
:101FA000C1714A4B4A4ACDE90010C106494808F0C0
:101FB000C7FB454812F04AF84FF4165013F0CDFB1A
:101FC00041480FF029FF002043490870434981F838
:101FD00025009FED430A434880ED0D0A0120414949
:101FE00081F83000012280213948001F01F082FA77
:101FF0004FF4C171374808F0FFFB42F2CF013120A6
:1020000008F01EFB142008F0A6FA18F024FF40F296
:10201000DC51042008F008FC03F07BFA1423324A58
:102020000021AFF2BD1005F0D5F803F099FB0020B8
:102030001CBD1CB50FE001A8002303221F21009046
:102040000A48006803F06AFF01AB00221F2107481D
:10205000006804F0A3F8EEE7227AFF1F6C9C0020D2
:1020600050040020609800205404002058040020F0
:10207000746D723100000000E11D000810040020A2
:10208000746D7232000000000D1E00081404002060
:1020900074340020CF030008741C0020690200087B
:1020A00068870020B705000868940020CF08000862
:1020B000688F0020650700086891002077070008F6
:1020C00014970020631B000800CA080025DB0020CD
:1020D00004440040A0600240000000207CC60020B4
:1020E0003D0AD73F24D300205C98002010B5044659
:1020F00000F094F8374880ED000B00F077F8364890
:1021000080ED000A00F0DDF8344880ED000B00F0AF
:10211000D1F8334880ED000A00F01AF9314880ED1B
:10212000000B00F00FF9304880ED000A10BD10B52B
:102130002DED028BB0EE408AF0EE608A274890EDDC
:10214000000B53EC102B51EC180B25F0FDFD09D0C2
:10215000244890ED000B53EC102B51EC180B25F09C
:10216000F3FD03D10120BDEC028B10BD0020FAE786
:102170001B48D0ED000AB4EE600AF1EE10FA07D069
:102180001948D0ED000AB4EE600AF1EE10FA01D160
:10219000012070470020FCE710B52DED028BB0EE5A
:1021A000408AF0EE608A53EC182B51EC180B25F0A6
:1021B000CBFD03D00120BDEC028B10BD0020FAE75F
:1021C000B4EE400AF1EE10FA01D001207047002071
:1021D000FCE7000088040020980400207804002018
:1021E00090040020800400209404002008B5002200
:1021F0000092012008B9012200E00022114611B12D
:10220000012907D102E0274A009203E06FF0004263
:10221000009200BF00BF9DED000A08BD30B52DED56
:10222000028B83B080249FED200BB0EE408AF0EE4D
:10223000608A202C09D1FFF7D9FF10EE105A2846EA
:1022400026F04AF941EC180B23E0012008B90122DD
:1022500000E00022114611B1012918D10AE0144A08
:102260000192002200929DED000BB0EE408AF0EE4C
:10227000608A0CE06FF0004200924FF0FF32019252
:102280009DED000BB0EE408AF0EE608A00BF00BF0B
:1022900000BFB0EE480AF0EE680A03B0BDEC028B56
:1022A00030BD00000000C0FF000000000000000082
:1022B0000000F8FF08B54FF0FF4000909DED000AC8
:1022C00008BD30B52DED028B83B080249FED410B0E
:1022D000B0EE408AF0EE608A202C09D1FFF7EAFFC9
:1022E00010EE105A284626F0F7F841EC180B21E0C2
:1022F000012008B9012200E00022114611B1012994
:1023000016D10AE0354A0192002200929DED000BA1
:10231000B0EE408AF0EE608A0AE0304A0092002275
:1023200001929DED000BB0EE408AF0EE608A00BF96
:1023300000BF00BFB0EE480AF0EE680A03B0BDEC83
:10234000028B30BD08B5264800909DED000A08BDFF
:1023500030B52DED028B83B080249FED1E0BB0EEC7
:10236000408AF0EE608A202C09D1FFF7EBFF10EED7
:10237000105A284626F0B0F841EC180B21E0012055
:1023800008B9012200E00022114611B1012916D13D
:102390000AE0144A0192002200929DED000BB0EE7B
:1023A000408AF0EE608A0AE00E4A00920022019212
:1023B0009DED000BB0EE408AF0EE608A00BF00BFDA
:1023C00000BFB0EE480AF0EE680A03B0BDEC028B25
:1023D00030BD000000000000000000000000F07FA1
:1023E000000080FF0000F0FF704700BFFEE700BF65
:1023F000FEE700BFFEE700BFFEE770477047000042
:102400000CB50020019000907648006840F48030C0
:102410007449086000BF7348006800F40030009001
:102420000198401C0190009818B90198B0F5A04F90
:10243000F1D16C48006800F4003010B10120009028
:1024400001E0002000900098012846D16548403006
:10245000006840F08050634940310860624800687D
:1024600040F44040604908605E48083000685D49BB
:10247000083108600846006840F4004008600846DB
:10248000006840F4A05008605848091F0860081F01
:10249000006840F08070091F086000BF5148006864
:1024A00000F000700028F9D040F205705049086033
:1024B0004C480830006820F003004A4908310860A1
:1024C0000846006840F00200086000BF4548083038
:1024D000006800F00C000828F8D10CBD10B5454884
:1024E000006840F47000434908603E48006840F0CE
:1024F00001003C49086000203A4908310860394829
:1025000000683D490840374908603C48091D08609B
:10251000081F006820F48020091F0860002031494E
:102520000C310860FFF76CFF4FF0006031498039D3
:10253000086010BD70B50020002202230024022193
:10254000284D08352D6805F00C0020B1042806D070
:10255000082834D107E02A4D2A4E356033E02A4D51
:10256000284E35602FE01F4D2D1D2D68C5F380547A
:102570001C4D2D1D2D6805F03F0154B1224DB5FBBA
:10258000F1F5184E361D3668C6F3881605FB06F2BF
:1025900009E01B4DB5FBF1F5124E361D3668C6F34A
:1025A000881605FB06F20F4D2D1D2D68C5F301455C
:1025B0006D1C6B00B2FBF3F5124E356003E0104D5D
:1025C000104E356000BF00BF064D08352D68C5F3BD
:1025D00003150E4E705D0B4D2D68C540094E3560DC
:1025E00070BD0000003802400070004008544007F1
:1025F000003C024088ED00E0FFFFF6FE10300024B2
:102600000024F4009C04002000127A00A0040020A2
:102610000948804709480047FEE7FEE7FEE7FEE776
:10262000FEE7FEE7FEE7FEE7FEE7FEE704480549B2
:10263000054A064B70470000DD24000889010008A8
:10264000F80E0120F8140120F8100120F8100120E4
:1026500010B502F076FF03F0BAF802F08DFF10BD5E
:1026600070B504466FF0040000F0C8F8E11704EB01
:102670005171C1F3C701344A1170E11704EB517174
:10268000CD1041F2883045430520304908804FF095
:10269000E020006940F002004FF0E02108610846A8
:1026A0004561006940F00100086170BD2DE9F04707
:1026B000074600264FF0E020D0F81490224800781A
:1026C00007FB00F800BF02F08FFF4FF0E0208569A4
:1026D00011E04FF0E0208469AC420CD0AC4202D251
:1026E000281B064403E0A9EB0400284406442546C1
:1026F000464500D300E0ECE700BF02F0BAFFBDE8BA
:10270000F08770B5044612480078012814D11148AA
:10271000007888B90D480088844206DB0B480088A1
:1027200094FBF0F5284605F09DF80848008894FBD6
:10273000F0F100FB114084B24FF47A7104FB01F018
:10274000FFF7B4FF70BD0000B0040020B204002009
:10275000EA040020DE04002032490143324A1160BD
:10276000704770B5002100230F22C4781CB32E4C93
:10277000246804F4E064C4F5E064C4F30721C1F103
:102780000404E3B20A4144789C40E1B284781440E6
:1027900021430C07210E254C05786155047804F07F
:1027A0001F050124AC4005786D11AD0005F1E02551
:1027B000C5F8004109E0047804F01F050124AC408D
:1027C0001B4D0678761145F8264070BD194A0A401F
:1027D0000243154B1B1F1A60704739B1124A121D74
:1027E00012680243104B1B1D1A6006E00E4A121DB0
:1027F000126882430C4B1B1D1A607047042808D1D5
:102800004FF0E021096941F004014FF0E02211612D
:1028100007E04FF0E021096921F004014FF0E022C8
:10282000116170470000FA050CED00E000E400E0E3
:1028300080E100E080FFFF1F10B504469848844205
:1028400008D10121084600F086FB0021012000F09C
:1028500082FB76E09348844208D10121022000F0F7
:102860007AFB0021022000F076FB6AE08E48844269
:1028700008D10121042000F06EFB0021042000F0AB
:102880006AFB5EE08948844208D10121082000F0FB
:1028900062FB0021082000F05EFB52E08448844285
:1028A00008D10121102000F056FB0021102000F07B
:1028B00052FB46E07F48844208D10121202000F0ED
:1028C0004AFB0021202000F046FB3AE07A4884428F
:1028D00008D10121402000F03EFB0021402000F003
:1028E0003AFB2EE07548844208D10121802000F097
:1028F00032FB0021802000F02EFB22E07048844251
:1029000008D10121801500F026FB0021A01500F060
:1029100022FB16E06B48844208D10121401500F0EB
:102920001AFB0021601500F016FB0AE0664884429D
:1029300007D10121001500F00EFB0021201500F049
:102940000AFB10BDF0B50A4600210023002400BF99
:102950003DE0012505FA01F3156805EA03049C42F0
:1029600034D105684F000326BE40B5430560157994
:102970004E00B5400668354305601579012D02D03B
:102980001579022D16D185684F000326BE40B54348
:10299000856055794E00B540866835438560456849
:1029A00001268E40B5434560456896798E40B6B2A3
:1029B00035434560C5684F000326BE40B543C5603A
:1029C000D5794E00B540C6683543C560491C10290D
:1029D000BFD3F0BD4FF6FF7101600021017141715D
:1029E0008171C171704708B54FF480320092009A2E
:1029F0000A430092009AC261C161009AC261C26931
:102A00000092C269009208BD0246002013690B4083
:102A10000BB1012000E0002070470146086980B238
:102A200070470246002053690B400BB1012000E0C3
:102A3000002070470146486980B2704701837047A3
:102A4000418370470AB1018300E0418370474161CF
:102A5000704742694A4042617047F0B50023002444
:102A60004D07ED0E02FA05F3CE1000F1200555F8E2
:102A700026504E07F70E0F26BE40B543CF1000F18B
:102A8000200646F82750CE1000F1200555F82650B4
:102A900045EA0304CE1000F1200545F82640F0BDBC
:102AA000000002400004024000080240000C024006
:102AB000001002400014024000180240001C0240B6
:102AC000002002400024024000280240F94800682B
:102AD00040F00100F74908600020F649083108601D
:102AE000F4480068F4490840F2490860F348091DB9
:102AF0000860F348EF4984310860F0481038091D38
:102B00000860EC48006820F48020EA490860002052
:102B1000E8490C310860E7498C31086070470021B2
:102B2000E44A921C117011460870704710B50146B6
:102B30000022002300204A11012A02D1DD4C236823
:102B400008E0022A03D1DB4C7034236802E0D94C40
:102B50007434236801F01F02012494401C400CB11E
:102B6000012000E0002010BD38B5002000900024B6
:102B7000002500BF3120FFF7D9FF05460098401C13
:102B800000900098B0F5A04F01D0002DF2D0312078
:102B9000FFF7CCFF08B1012400E00024204638BD37
:102BA00001460020C34A106820F0F80040EAC10046
:102BB00010607047C349086070470021BD4A7032F9
:102BC00011701170012802D004280AD104E00121FB
:102BD000B84A7032117005E00521B64A70321170A2
:102BE00000E000BF00BF7047B7490860704770B58C
:102BF000049C41EA82150126C6EB530645EA0645C8
:102C0000054345EA0465AB4E361D356070BDAD49E0
:102C100008667047820142EA0172A64B84331A604B
:102C20007047A8498866704710B5830143EA01637D
:102C300043EA02739F4C8834236010BDA1490867A2
:102C40007047A049C864704702460020994B08337A
:102C5000186820F0EC6042EA01031843954B0833F2
:102C60001860704702460020924B0833186820F025
:102C7000784042EA010318438E4B083318607047CE
:102C8000014600208B4A0832106820F003000843F8
:102C90001060704787480830006800F00C007047EB
:102CA00001460020834A0832106820F0F0000843F3
:102CB00010607047014600207E4A0832106820F4F8
:102CC000E05008431060704701460020794A0832FE
:102CD000106820F4604040EAC10010607047F0B511
:102CE000002100220024022500260223714F08370C
:102CF0003F6807F00C0121B1042905D0082937D11C
:102D000005E0724F076036E0714F076033E0694FAE
:102D10003F1D3F68C7F38056664F3F1D3F6807F071
:102D20003F036EB16A4FB7FBF3F7DFF888C10CF1D0
:102D3000040CDCF800C0CCF3881C07FB0CF40CE09E
:102D4000624FB7FBF3F7DFF86CC10CF1040CDCF851
:102D500000C0CCF3881C07FB0CF4564F3F1D3F68A6
:102D6000C7F301477F1C7D00B4FBF5F7076002E065
:102D7000564F076000BF00BF4E4F08373F6807F04F
:102D8000F0010909534F7A5C0768D7404760494F03
:102D900008373F6807F4E051890A4E4F7A5C47686C
:102DA000D7408760434F08373F6807F46041490BBD
:102DB000484F7A5C4768D740C760F0BD002100F4F7
:102DC0004072B2F5407F0AD13A4A0832116821F4C4
:102DD000F811414A02401143364A08321160354A1F
:102DE00070321268C0F30B031A43324B70331A600F
:102DF00070473549443908607047334940390860A5
:102E0000704736490860704701460020294A8C32D5
:102E1000106820F01F004A1E1043264A8C321060B2
:102E2000704701460020234A8C32106820F4F85085
:102E30004A1E40EA02201F4A8C3210607047014649
:102E400000201C4A8C32106820F4401008431060A7
:102E5000704701460020174A8C32106820F4400069
:102E600008431060704701460020124A8C321068F7
:102E700020F44030084310607047194908607047DB
:102E800039B10C4A3032126802430A4B30331A60AF
:102E900006E0084A303212688243064B30331A602B
:102EA0007047F9B1034A343212680243014B34339C
:102EB0001A601CE000380240FFFFF6EA10300024E0
:102EC0000030002000004742800E47420024F400FA
:102ED00000127A00B4040020FFFCFF0F5C0147429F
:102EE000E01147428F4A126882438E4B1A60704746
:102EF00039B18C4A121D126802438A4B1B1D1A609D
:102F000006E0884A121D12688243864B1B1D1A6018
:102F1000704739B1834A0C3212680243814B0C333B
:102F20001A6006E07F4A0C32126882437D4B0C33F4
:102F30001A60704739B17B4A103212680243794BEC
:102F400010331A6006E0774A103212688243754BDC
:102F500010331A60704739B1724A243A126802433A
:102F6000704B243B1A6006E06E4A243A1268824392
:102F70006C4B243B1A60704739B16A4A203A126898
:102F80000243684B203B1A6006E0664A203A12680A
:102F90008243644B203B1A60704739B1614A1C3A46
:102FA000126802435F4B1C3B1A6006E05D4A1C3A04
:102FB000126882435B4B1C3B1A60704739B1594A17
:102FC000143A12680243574B143B1A6006E0554A04
:102FD000143A12688243534B143B1A60704739B15C
:102FE000504A103A126802434E4B103B1A6006E0FA
:102FF0004C4A103A126882434A4B103B1A607047A1
:1030000039B1484A1C3212680243464B1C331A60DD
:1030100006E0444A1C3212688243424B1C331A6059
:10302000704739B13F4A2032126802433D4B20338A
:103030001A6006E03B4A203212688243394B203343
:103040001A60704739B1374A243212680243354B4F
:1030500024331A6006E0334A243212688243314B2B
:1030600024331A60704739B12E4A2C321268024359
:103070002C4B2C331A6006E02A4A2C321268824309
:10308000284B2C331A60704739B1264A3032126807
:103090000243244B30331A6006E0224A3032126871
:1030A0008243204B30331A607047012808D11D49F4
:1030B0003C31096841F008011A4A3C32116007E0CE
:1030C00018493C31096821F00801164A3C32116068
:1030D000704739B1134A273A12780243114B273B04
:1030E0001A7006E00F4A273A127882430D4B273BAD
:1030F0001A7070470B484030006840F080700949F2
:1031000040310860704701460020064A283A12689C
:103110000A400AB1012000E0002070470149263929
:10312000087070473438024010B501218803FFF75A
:1031300056FF00214FF48040FFF751FF10BD1C499E
:10314000086070471B490862704730B500228B0742
:103150001C0F0F2303FA04F2154B08338C1053F89D
:1031600024309343124C08348D1044F82530234604
:103170008C1053F824308C07240F00FA04F42343F6
:103180000B4C08348D1044F8253030BD0949DC3132
:1031900008607047084908607047002004492031E2
:1031A000096801F4807109B1012000E00020704736
:1031B00000380140000027420004274210B50446B1
:1031C000FA48844208D101211020FFF708FF0021AE
:1031D0001020FFF704FF57E0F548844209D1012190
:1031E0004804FFF7EBFE00214FF40030FFF7E6FE46
:1031F0004AE0F048844209D101218804FFF7DEFE4D
:1032000000214FF48020FFF7D9FE3DE0EA488442D8
:1032100009D10121C804FFF7D1FE00214FF400209D
:10322000FFF7CCFE30E0E548844209D101210805D2
:10323000FFF7C4FE00214FF48010FFF7BFFE23E02C
:10324000DF48844208D101212020FFF7C8FE002179
:103250002020FFF7C4FE17E0DA48844209D101219B
:103260008807FFF7ABFE00214FF08040FFF7A6FE76
:103270000AE0D548844207D101214005FFF79EFEB0
:1032800000216005FFF79AFE10BD2DE9FF470546B6
:103290000E460024A14600BFA046B08900B100BF81
:1032A0002C8A24F44054F08804432C82AC8941F2E7
:1032B0000C608443B0883189084371890843044312
:1032C000AC81AC8A24F44074B0890443AC82684673
:1032D000FFF705FDB548854202D0B948854202D1C5
:1032E000DDF80C9001E0DDF80890A88900F40040BA
:1032F00040B109EBC90000EB091031684900B0FB8F
:10330000F1F707E009EBC90000EB0910316889000B
:10331000B0FBF1F76420B7FBF0F004012009642151
:1033200001FB1078A88900F4004040B1322000EB86
:10333000C800B0FBF1F000F00700044308E03220C1
:1033400000EB08106421B0FBF1F000F00F00044323
:103350002C81BDE8FF874FF4165101600021818068
:10336000C18001810C21418100218181704710B50C
:1033700002460020108A20F470600B884C8823439A
:103380008C882343CC8823431843108210BD00212E
:10339000018041808180C180704721B1828942F4DF
:1033A0000052828104E082894DF6FF731A408281C7
:1033B0007047028B02F47F420283028B0A4302832E
:1033C000704721B1828942F40042828103E0828900
:1033D000C2F30E028281704721B1828A42F40062F8
:1033E000828204E0828A4FF2FF731A408282704721
:1033F000C1F308028280704701468888C0F3080044
:103400007047028A4FF6F0731A400282028A0A431A
:103410000282704721B1828942F00202828104E077
:1034200082894FF6FD731A408281704782894FF27C
:10343000FF731A40828182890A4382817047028A1F
:103440004FF6DF731A400282028A0A4302827047F3
:1034500021B1028A42F48042028204E0028A4BF6E1
:10346000FF731A4002827047818941F00101818116
:10347000704721B1828A42F00802828204E0828A87
:103480004FF6F7731A4082827047028BD2B20283E2
:10349000028B42EA01220283704721B1828A42F004
:1034A0002002828204E0828A4FF6DF731A40828211
:1034B000704721B1828A42F01002828204E0828A3F
:1034C0004FF6EF731A4082827047828A4FF6FB7381
:1034D0001A408282828A0A438282704721B1828A9C
:1034E00042F00202828204E0828A4FF6FD731A40A3
:1034F000828270471AB1838A0B43838202E0838AF7
:103500008B4383827047F0B50346002400260025D4
:10351000002040F66A17B94200D100BF1846C1F337
:10352000421401F01F06012707FA06F5012C01D10C
:103530000C3004E0022C01D1103000E014301AB13C
:1035400007682F43076002E00768AF430760F0BDDC
:1035500002460020B1F5007F00D100BF13880B4068
:103560000BB1012000E00020704701F40072B2F5B9
:10357000007F00D100BFCA430280704770B5024689
:10358000002400230025002040F66A16B14200D135
:1035900000BFC1F3421501F01F03012606FA03F331
:1035A000012D13D19689334017E00000001001402F
:1035B0000044004000480040004C004000500040E3
:1035C0000014014000780040007C0040022D02D130
:1035D000168A334001E0968A33400C12012606FA1F
:1035E00004F41688344013B10CB1012000E000202F
:1035F00070BD10B50022002340F66A14A14200D12C
:1036000000BF0A1201249440A3B2DC43048010BD21
:1036100010B50446FE48844208D101210846FFF750
:10362000DEFC00210120FFF7DAFC9DE0B4F1804FC1
:1036300008D101210846FFF7C1FC00210120FFF756
:10364000BDFC91E0F348844208D101210220FFF73C
:10365000B5FC00210220FFF7B1FC85E0EE48844272
:1036600008D101210420FFF7A9FC00210420FFF765
:10367000A5FC79E0E948844208D101210820FFF740
:103680009DFC00210820FFF799FC6DE0E44884428E
:1036900008D101211020FFF791FC00211020FFF735
:1036A0008DFC61E0DF48844208D101212020FFF732
:1036B00085FC00212020FFF781FC55E0DA48844298
:1036C00008D101210220FFF78AFC00210220FFF728
:1036D00086FC49E0D548844209D101210804FFF75E
:1036E0007EFC00214FF48030FFF779FC3CE0D048AD
:1036F000844209D101214804FFF771FC00214FF4F5
:103700000030FFF76CFC2FE0CA48844209D1012148
:103710008804FFF764FC00214FF48020FFF75FFC72
:1037200022E0C548844208D101214020FFF746FC31
:1037300000214020FFF742FC16E0C048844208D137
:1037400001218020FFF73AFC00218020FFF736FCA2
:103750000AE0BB48844207D101218015FFF72EFC07
:103760000021A015FFF72AFC10BD00220288A84BFB
:1037700098420ED0AC4B98420BD0B0F1804F08D09D
:10378000A44B984205D0A44B984202D0A34B984238
:1037900004D14FF68F731A404B881A43A04B9842BE
:1037A00007D0A04B984204D04FF6FF431A400B8934
:1037B0001A4302804B68C3620B880385944B98427E
:1037C00002D0994B984201D18B7A038601238382E0
:1037D00070474FF0FF31416000210180018141803D
:1037E000817270470185828270470A4600210188F4
:1037F0004FF68F7319401143018070474162704743
:10380000C16270470146486A70470146088D70479B
:1038100021B1028842F00202028004E002884FF6E1
:10382000FD731A400280704721B1028842F0040201
:10383000028004E002884FF6FB731A400280704752
:1038400021B1028842F08002028004E002884FF633
:103850007F731A400280704702884FF6F7731A4050
:10386000028002880A430280704702884FF6FF43B5
:103870001A40028002880A430280704721B1028800
:1038800042F00102028004E002884FF6FE731A4003
:103890000280704770B5002400220023058C4FF68B
:1038A000FE7635400584028C8388048B4FF68F7535
:1038B0002C40B51E2C400D882C43751E2A408D8946
:1038C0002A434D882A43524DA84202D0564DA84261
:1038D00013D14FF6F7752A40CD892A434FF6FB7571
:1038E0002A408D882A434FF6FF652B404FF6FF553F
:1038F0002B400D8A2B434D8A2B43838004838D6894
:103900004563028470BD70B5002400220023058C3D
:103910004FF6EF7635400584028C8388048B48F699
:10392000FF752C404FF6FF452C400D884FF6FF7673
:1039300006EA05252C434FF6DF752A408D8906EAF5
:1039400005152A434D8806EA05152A43304DA8423D
:1039500002D0354DA8421DD14FF67F752A40CD8942
:103960004FF6FF7606EA05152A434FF6BF752A4043
:103970008D8806EA05152A434FF6FF352B404FF296
:10398000FF752B400D8A06EA85052B434D8A06EA12
:1039900085052B43838004838D688563028470BD15
:1039A00070B5002400220023058C4FF6FF663540D9
:1039B0000584028C8388848B4FF68F752C404FF6DC
:1039C000FC752C400D882C434FF6FF552A408D89FD
:1039D0004FF6FF7606EA05252A434D8806EA0525B7
:1039E0002A430B4DA84202D00F4DA84238D14FF2C6
:1039F000FF752A40CD894FF6FF7606EA05252A4352
:103A00004FF6FF352A408D8806EA05252A4319E03E
:103A1000000001400004004000080040000C00408D
:103A2000001000400014004000040140004001402C
:103A3000004401400048014000180040001C0040C4
:103A4000002000404EF6FF752B404DF6FF752B40D1
:103A50000D8A06EA05152B434D8A06EA05152B4308
:103A6000838084838D68C563028470BD70B5002235
:103A700000230024058C4EF6FF7635400584038C28
:103A80008488828B48F6FF752A404FF6FF452A400E
:103A90000D884FF6FF7606EA05252A434DF6FF7599
:103AA0002B408D8906EA05352B434D8806EA0535FE
:103AB0002B43FE4DA84202D0FD4DA84208D14BF643
:103AC000FF752C400D8A4FF6FF7606EA85152C43CC
:103AD000848082838D680564038470BD0021018029
:103AE0004180818081608181C181018241827047F2
:103AF00070B50346002000241846183001258D407B
:103B0000ACB21D8CA5431D8409B108290AD100EB74
:103B1000610005684FF68F763540056005681543EE
:103B200005600FE00D1FC5F34E052844056848F6F3
:103B3000FF763540056005684FF6FF7606EA0226F7
:103B40003543056070BD4163704781637047C16351
:103B50007047016470470A460021018B4FF68F734E
:103B600019401143018370470A460021018B48F632
:103B7000FF7319404FF6FF7303EA022319430183D1
:103B800070470A460021818B4FF68F73194011430D
:103B9000818370470A460021818B48F6FF731940E4
:103BA0004FF6FF7303EA02231943818370470A46E5
:103BB0000021018B4FF6F7731940114301837047C1
:103BC0000A460021018B4FF2FF7319404FF6FF7335
:103BD00003EA02231943018370470A460021818BBF
:103BE0004FF6F77319401143818370470A4600214D
:103BF000818B4FF2FF7319404FF6FF7303EA0223E4
:103C00001943818370470A460021018B4FF6FB73ED
:103C100019401143018370470A460021018B4FF67A
:103C2000FF3319404FF6FF7303EA02231943018360
:103C300070470A460021818B4FF6FB7319401143F0
:103C4000818370470A460021818B4FF6FF3319406C
:103C50004FF6FF7303EA02231943818370470A4634
:103C60000021018B4FF67F73194011430183704788
:103C70000A460021018BC1F30E014FF6FF7303EAE0
:103C800002231943018370470A460021818B4FF6B6
:103C90007F7319401143818370470A460021818B4D
:103CA000C1F30E014FF6FF7303EA02231943818328
:103CB00070470A460021018C4FF6FD7319401143ED
:103CC000018470470A460021018C4FF6F7731940B2
:103CD0001143018470470A460021018C4FF6DF73BF
:103CE00019404FF6FF7303EA02131943018470472A
:103CF0000A460021018C4FF67F7319404FF6FF737F
:103D000003EA02131943018470470A460021018C1B
:103D10004FF6FF5319404FF6FF7303EA022319438E
:103D2000018470470A460021018C4FF2FF7319404D
:103D30004FF6FF7303EA02231943018470470A46D2
:103D40000021018C4DF6FF7319404FF6FF7303EA13
:103D5000023319430184704730B5002301248C409D
:103D6000A3B2048C9C430484048C02FA01F5ADB226
:103D70002C43048430BD30B5002304248C40A3B20E
:103D8000048C9C430484048C02FA01F5ADB22C43EC
:103D9000048430BD828B4FF2FF331A408283828BC2
:103DA0004FF6FF7303EA01231A4382837047F0B58D
:103DB0000C461546002100220026078C4EF6FF7C9B
:103DC00007EA0C070784818B028C4FF6FF7707EA1E
:103DD000043640F6FF4739404FF6FF7707EA0527DC
:103DE00039434FF6FF7707EA0337394345F6FF7744
:103DF0003A4046F480573A4381830284F0BD828B77
:103E00004FF6F3731A408283828B0A438283704792
:103E1000F0B50C461546002100220026078C4FF60F
:103E2000FF6C07EA0C070784818B028C4FF6FF7743
:103E300007EA04264FF60C7739404FF6FF7707EA7A
:103E400003172F4339434FF2FF573A4046F4807728
:103E50003A4381830284F0BD028B4FF2FF331A4054
:103E60000283028B4FF6FF7303EA01231A43028396
:103E70007047F0B50C461546002100220026078C3D
:103E80004FF6EF7C07EA0C070784018B028C4FF694
:103E9000FF7707EA041640F6FF4739404FF6FF77F1
:103EA00007EA033739434FF6FF7703E0000001408C
:103EB0000004014007EA052739434FF65F773A408F
:103EC00046F010073A4301830284F0BD028B4FF69F
:103ED000F3731A400283028B0A4302837047F0B5E2
:103EE0000C46154600210022068C4FF6FE773E4018
:103EF0000684018B028C4FF60C7631407E1C06EA5C
:103F000003162E4331434FF6F576324044F0010656
:103F1000324301830284F0BD70B505460C4620880B
:103F200050B92389A28861882846FFF7D8FFE18825
:103F30002846FFF7CBFF25E0208804280AD12389F3
:103F4000A28861882846FFF794FFE1882846FFF79A
:103F500083FF17E0208808280AD12389A288618876
:103F60002846FFF755FFE1882846FFF748FF09E09C
:103F70002389A28861882846FFF719FFE18828462F
:103F8000FFF708FF70BD0021018041800121818081
:103F90000021C180018170472DE9F04105460C46A2
:103FA00000260127608808B9022600E00026A088C4
:103FB000012801D1022700E001272088A0B9238928
:103FC000A28861882846FFF78AFFE1882846FFF724
:103FD0007DFF23893A4631462846FFF74AFFE188AC
:103FE0002846FFF739FF13E02389A2886188284615
:103FF000FFF73FFFE1882846FFF72EFF23893A4667
:1040000031462846FFF76BFFE1882846FFF75EFF41
:10401000BDE8F0810146486B70470146886B7047E8
:104020000146C86B70470146086C70470A884B8888
:104030001A438B881A43CB881A430B891A434B893E
:104040001A438B891A43A0F844207047002101804D
:1040500041808180C180018141818181704731B17E
:10406000B0F8442042F40042A0F8442005E0B0F843
:104070004420C2F30E02A0F84420704721B1828888
:1040800042F00402828004E082884FF6FB731A40FB
:104090008280704721B1828842F00102828004E070
:1040A00082884FF6FE731A40828070471AB1838966
:1040B0000B43838102E083898B4383817047818234
:1040C000704702460020138A0B400BB1012000E02C
:1040D00000207047CA430282704730B50246002074
:1040E00000230024158A05EA0103958905EA0104E5
:1040F00013B10CB1012000E0002030BDCA430282A0
:10410000704741EA0203A0F8483070471AB183892A
:104110000B43838102E083898B438381704721B104
:10412000828842F00802828004E082884FF6F773AA
:104130001A408280704701894FF6F8721140018160
:1041400070470A46002101894FF68F7319401143C9
:104150000181704730B504460D4629462046FFF7D9
:10416000F0FF208940F00700208130BD2DE9F041AB
:1041700004460D4616461F46602D06D13B460122D9
:1041800031462046FFF775FE05E03B4601223146E9
:104190002046FFF7A4FE29462046FFF7D2FF2089DC
:1041A00040F007002081BDE8F08130B50C460021C9
:1041B0000189C9B24FF6FF7505EA0325154325436A
:1041C0002943018130BD2DE9F04105460E461746D1
:1041D0009846002443463A4631462846FFF7E5FF15
:1041E0002C894FF6F870044044F007044FF68F70A6
:1041F000044044F070042C81BDE8F081F0B5044621
:104200000D4616461F463B46324629462046FFF7D6
:10421000CCFF208940F480402081F0BD82884FF699
:104220008F731A40828082880A4382807047028995
:104230004FF6F8731A40028102890A4302817047DF
:1042400002894FF67F731A40028102890A43028174
:104250007047F0B50C4615461E460021002200238B
:104260000189028B038C4FF6F877394021434FF6D2
:10427000FC473A4040F201173A434FF6DD773B40A6
:104280004FF6FF7707EA06172F433B43018102836E
:104290000384F0BD21B1828842F08002828004E074
:1042A00082884FF67F731A4082807047A0F85010C2
:1042B00070470000FE4A1070704730B1FC49096831
:1042C00041F48071FA4A116005E0F949096821F466
:1042D0008071F74A1160704730B1F549096841F4BF
:1042E0000071F34A116005E0F149096821F4007199
:1042F000EF4A1160704730B1ED49096841F48061BF
:10430000EB4A116005E0EA49096821F48061E84A56
:1043100011607047E648006840F40060E4490860B6
:104320007047E348006840F48050E14908607047F6
:10433000DF481030006800F0004028B1DD48DC495B
:10434000091D0860DC4808607047D94810300068D3
:1043500040F00040D6491031086070470920D44928
:104360000C31096801F48031B1F5803F01D10120A1
:1043700020E0CF490C31096801F0100109B1062095
:1043800018E0CB490C31096801F4807109B10220B1
:1043900010E0C7490C31096801F0EF0109B10720AD
:1043A00008E0C3490C31096801F0020109B1082095
:1043B00000E00920704708B509200090FFF7CEFF04
:1043C000009002E0FFF7CAFF00909DF8000001286E
:1043D000F8D09DF8000008BD70B504460A460026D6
:1043E000092502B909E0012A01D1160205E0022AD5
:1043F00001D1160201E04FF44076FFF7DCFF0546DD
:10440000092D2DD1AA481030006820F44070A84929
:1044100010310860084600683043086008460068AC
:1044200020F0F80008600846006844F002010843E4
:104430009F49103108600846006840F480300860E9
:10444000FFF7B9FF05469A481030006820F00200D7
:104450009749103108600846006820F0F8000860AD
:10446000284670BD30B5024600250924FFF7A3FF9A
:10447000044602B909E0012A01D1150205E0022A29
:1044800001D1150201E04FF44075092C20D1884874
:104490001030006820F440708549103108600846EB
:1044A0000068284308600846006840F0040008607F
:1044B0000846006840F480300860FFF77CFF04463F
:1044C0007B481030006820F0040079491031086002
:1044D000204630BD30B5024600250924FFF76BFFAA
:1044E000044602B909E0012A01D1150205E0022AB9
:1044F00001D1150201E04FF44075092C20D16C4820
:104500001030006820F44070694910310860084696
:104510000068284308600846006840F0040008600E
:104520000846006840F480300860FFF744FF044606
:104530005F481030006820F004005D4910310860C9
:10454000204630BD30B5024600250924FFF733FF71
:10455000044602B909E0012A01D1150205E0022A48
:1045600001D1150201E04FF44075092C20D15048CB
:104570001030006820F440704D4910310860084642
:104580000068284308600846006840F4004008605E
:104590000846006840F480300860FFF70CFF0446CE
:1045A00043481030006820F4004041491031086051
:1045B000204630BD70B5064614461D460922FFF759
:1045C000FAFE0246092A1ED139481030006820F44C
:1045D00040703749103108600846006840F4407068
:1045E00008600846006840F00100086034607560AB
:1045F000FFF7E1FE02462E481030006820F001006F
:104600002B4910310860104670BD30B502460C468B
:104610000925FFF7D0FE0546092D1DD1244810308D
:10462000006820F440702249103108600846006894
:1046300040F4007008600846006840F0010008601F
:104640001460FFF7B8FE054619481030006820F0E6
:104650000100174910310860284630BD30B50246C8
:104660000C460925FFF7A7FE0546092D1DD1104868
:104670001030006820F440700D4910310860084681
:10468000006840F4807008600846006840F001004F
:1046900008601480FFF78FFE05460548103000685B
:1046A00020F00100024910310860284630BD0000AA
:1046B000003C024023016745AB89EFCD30B502468F
:1046C0000C460925FFF777FE0546092D17D19B48B3
:1046D000006820F440709949086008460068086046
:1046E0000846006840F0010008601470FFF763FEA0
:1046F00005469248006820F001009049086028466D
:1047000030BD8E48001D006800F0010028B18C48C3
:104710008A49083908608B48086070478748001D3F
:10472000006840F001008549091D0860704730B5F8
:1047300002460C460925FFF73EFE0546092D10D11D
:104740003CB17E48801D008890437C49891D0880CB
:1047500007E07A48801D008891B208437749891D97
:10476000088030BD30B502460C460925FFF723FE10
:104770000546092D10D13CB170480A30008890439D
:104780006E490A31088007E06C480A30008891B20F
:1047900008436A490A31088030BDFF21674AD21DAB
:1047A000127802F07F0140EA0102644BDB1D1A70AF
:1047B000704730B502460C460925FFF7FCFD05465B
:1047C000092D10D144B15D48801D008891B2084385
:1047D0005A49891D088006E05848801D008890438A
:1047E0005649891D088030BD30B502460C46092562
:1047F000FFF7E1FD0546092D10D144B14F480A30BD
:10480000008891B208434D490A31088006E04B48C0
:104810000A300088904349490A31088030BD10B5FC
:1048200002460924FFF7C7FD0446092C02D143487C
:10483000401D027010BDF0B504460D46FF26092745
:10484000FFF7B9FD0746092F0BD13C48001D007842
:1048500000F00F0645EA0600104320433749091DC2
:104860000870F0BD3549091D097821F01001334A5F
:10487000121D1170114609780143117070472F49BC
:10488000091D097821F00C012C4A121D11701146E6
:10489000097801431170704700B509222748001DAF
:1048A000007840F002002549091D0870FFF783FDDC
:1048B0000246104600BD2148001D0068C0F34710A5
:1048C00070471E48801D008870471C480A300088C9
:1048D00070471A48801D0088704718480A300088C1
:1048E000704700201549491D0978AA2901D00120E7
:1048F00000E0002070471148001D007800F00C0017
:10490000704729B10D4A126802430C4B1A6004E04B
:104910000A4A12688243094B1A6070470146002018
:10492000064A121F12680A400AB1012000E0002066
:1049300070470249091F086070470000103C0240A0
:104940003B2A19087F6E5D4C002041490860091D13
:104950000860091D0860091D08603E483C49143183
:104960000860704700213A498279002A3AD00A4605
:10497000126803689A430B461A600A1D126803689E
:104980009A430B1D1A60027911440A6803681A439E
:104990000A602F4A0832126803689A432C4B083386
:1049A0001A601A1D126803689A43294B0C331A6067
:1049B0004279102A0ED11A1F126803681A43244B39
:1049C00008331A601A1D126803681A43204B0C330F
:1049D0001A600DE01E49427911440A6803681A43BF
:1049E0000A6005E0027911440A6803689A430A6084
:1049F00070470021016001710C214171002181711A
:104A000070471349103109680143114A103211608F
:104A10007047014600200E4A143212680A400AB15B
:104A2000012000E0002070470949143108607047F8
:104A300001460020064A143212680A400AB10120D9
:104A400000E0002070470249143108607047000000
:104A5000003C0140FFFF7F0010B50446FB48844244
:104A600008D101218014FEF7BAFA0021A014FEF744
:104A7000B6FA3CE0F648844208D101210014FEF762
:104A80009DFA00212014FEF799FA30E0F1488442A3
:104A900008D10121C013FEF791FA0021E013FEF7BF
:104AA0008DFA24E0EC48844208D101214014FEF73D
:104AB00096FA00216014FEF792FA18E0E748844263
:104AC00009D101210805FEF78AFA00214FF4801070
:104AD000FEF785FA0BE0E248844208D1012148053F
:104AE000FEF77DFA00214FF40010FEF778FA10BDB2
:104AF00010B50022028802F441520B884C882343EF
:104B00008C882343CC8823430C8923434C8923433B
:104B10008C892343CC8923431A430280838B4FF231
:104B2000FF74234083830B8A038210BD2DE9F04F6D
:104B30000025022300244FF001090022002600274F
:104B400094469046B0F81CA04FF2400B0AEA0B0ABC
:104B5000A0F81CA04FF0020AA0F820A0858BD1F885
:104B600008A0BAF1020F01D100BF82E0B1F804A0A1
:104B7000BAF1000F02D14FF0010901E04FF0020934
:104B8000DFF8E0A2DAF800A00AF4000ABAF1000F98
:104B900009D0DFF8D0A2DAF800A02AF4000ADFF882
:104BA000C4B2CBF800A0DFF8BCA20AF17C0ADAF8A4
:104BB00000A0CAF3881CDFF8ACA20AF17C0ADAF87C
:104BC00000A0CAF30278DFF89CA2AAF1040ADAF87E
:104BD00000A00AF03F07DFF88CA2AAF1040ADAF875
:104BE00000A00AF4800ABAF5800F08D1DFF878A295
:104BF000BAFBF7FA0AFB0CFABAFBF8F607E0DFF8A3
:104C00006CA2BAFBF7FA0AFB0CFABAFBF8F6B1F899
:104C100006A0BAF5007F0ED14FEA162A0AEB8A0ADF
:104C20004FEA4A0AD1F808B0BAFBFBFA0AF1050AC2
:104C30001FFA8AF20FE04FEA491AB6FBFAFA0AEBBA
:104C40008A0A4FEA4A0AD1F808B0BAFBFBFA0AF11D
:104C5000050A1FFA8AF24FF00A0AB2FBFAF202F0D2
:104C60000104A2EB040ACAF34F034FF6FF7A0AEAE3
:104C70000424022B01DBFF2B01DD02230024B1F809
:104C800006A04AEA040A4AEA030AA0F820A0B1F8FA
:104C900004A0B1F80CB04AEA0B0AB1F802B04AEA33
:104CA0000B0AB1F800B04AEA0B0A4AF4006A4AEA71
:104CB00005058583BDE8F08F00210180418081805A
:104CC000C180018141818181C181072101827047B9
:104CD0000021018041808180C1800221816000210A
:104CE0008181704721B1028842F04002028004E0D5
:104CF00002884FF6BF731A400280704721B1828B41
:104D000042F48062828304E0828B4FF6FF331A40C4
:104D10008283704702884FF2FF731A400280028834
:104D20000A4302807047B1F5804F04D1028842F4F3
:104D30008042028004E002884BF6FF731A40028032
:104D400070474FF6FF62914204D0028842F48072AD
:104D5000028004E002884FF6FF631A400280704729
:104D600021B1828842F00402828004E082884FF6FA
:104D7000FB731A408280704721B1828842F0100292
:104D8000828004E082884FF6EF731A408280704779
:104D900030B500220023848B4FF240052C408483E1
:104DA00002240484828B0C88B4F5007F01D00C8827
:104DB00014B94FF4807308E00C88B4F5407F03D039
:104DC0000C88B4F5807F00D100238C888D892C431A
:104DD0004D882C431C4344F400642243828330BD3D
:104DE0000146888970478181704721B1028842F469
:104DF0000052028004E002884DF6FF731A400280E0
:104E00007047018841F480510180704702460020BC
:104E1000012901D0108B00E0908A70470146088A72
:104E200070471AB183880B43838002E083888B43E9
:104E30008380704730B5002400230C110125A54064
:104E4000ABB2AAB185881D43858014E000300140D3
:104E500000380040003C0040003401400050014058
:104E6000005401400838024000127A000024F40087
:104E700085889D43858030BD0246002013890B4004
:104E80000BB1012000E000207047CA430281704747
:104E9000F0B50246002000240023002501F00F0792
:104EA0000126BE40B4B20B1101269E40B3B29688D3
:104EB00006EA03051689264016B10DB1012000E06F
:104EC0000020F0BD10B5002201F00F040123A34023
:104ED0009AB2D343038110BD016821F00101016042
:104EE0000021016041608160C16001612121416157
:104EF000DB49884204D13D21D94A103A91608CE0C7
:104F0000D7491831884205D14FF47461D44A103A18
:104F1000916082E0D2493031884205D14FF474115A
:104F2000CF4A103A916078E0CD494831884205D1A6
:104F30004FF07461CA4A103A91606EE0C84960311E
:104F4000884204D1C749C64A103AD16065E0C449D5
:104F50007831884204D1C449C14A103AD1605CE03A
:104F6000BF499031884204D1C049BD4A103AD1604E
:104F700053E0BB49A831884205D14FF03D51B84AB2
:104F8000103AD16049E0BA49884204D13D21B84A7B
:104F9000083A116041E0B6491831884205D14FF412
:104FA0007461B34A083A116037E0B1493031884240
:104FB00005D14FF47411AE4A083A11602DE0AC49A6
:104FC0004831884205D14FF07461A94A083A11600E
:104FD00023E0A7496031884204D1A249A44A121FA4
:104FE00011601AE0A2497831884204D19E49A04A52
:104FF000121F116011E09E499031884204D19B49F3
:105000009B4A121F116008E09949A831884204D1D7
:105010004FF03D51964A121F1160704710B50022A3
:105020000268944B1A40CC680B6823434C692343B5
:105030008C692343CC6923430C6A23434C6A234382
:105040008C6A23434C6B23438C6B23431A430260CB
:10505000426922F00702D1E90B3423431A4342612B
:105060000B6943604B6883608B68C36010BD00218F
:10507000016041608160C160016141618161C16124
:10508000016241628162C162016341638163704771
:1050900021B1026842F00102026003E0026822F0DE
:1050A00001020260704721B1026842F400420260CE
:1050B00003E0026822F400420260704721B10268F6
:1050C00042F02002026003E0026822F02002026047
:1050D0007047416070470146486880B2704722B10E
:1050E000036843F40023036003E0036823F4002310
:1050F00003600161704721B1026842F480220260BE
:1051000003E0026822F48022026070470AB1016164
:1051100000E0C1607047014600200A6802F40022E6
:105120000AB1012000E000207047014600200A6813
:1051300002F001020AB1012000E0002070470146A0
:1051400000204A6902F03800704730B503460A462D
:1051500000200024464DAB4202D24149103901E003
:105160004349103902F000550DB14C6800E00C685D
:10517000414D2C4004EA02050DB1012000E0002061
:1051800030BD02463A4B9A4202D23548103801E00F
:105190003748103801F000531BB1374B0B40C36048
:1051A00002E0354B0B408360704710B501F080037F
:1051B0004BB122B1436943F08003436103E043698B
:1051C00023F08003436180290BD02AB1036801F0EA
:1051D0001E042343036004E0036801F01E04A3439C
:1051E000036010BD70B50246002000240025204E4B
:1051F000B24202D21A4B103B01E01D4B103B1F4E36
:105200000E4036B11E2606EAD124166806EA0405C9
:1052100002E0566906F0800501F000560EB15C68A8
:1052200000E01C68144E344004EA010616B10DB1CA
:10523000012000E0002070BD02460D4B9A4202D2D0
:105240000748103801E00A48103801F000531BB13C
:10525000094B0B40C36002E0074B0B408360704773
:10526000106002403D000020400F002000003D2063
:10527000106402403F801CF07D0F7D0F3C0F3C0FFF
:105280000E49086070470D49486070470B498860B7
:1052900070474AF6AA200949086070474CF6CC408E
:1052A00006490860704701460020044AD2680A4057
:1052B0000AB1012000E000207047000000300040EB
:1052C0007CB5002514E06946284602F0C1F906467F
:1052D00066B9F84850F8254044B1012C06D0D4E90D
:1052E000020100EB810060640198A064681CC5B2F3
:1052F0003F2DE8D97CBD002400BF02E0282002F049
:10530000B1FAED4800780028F8D0EC480068642134
:10531000B0FBF1F0E94908600846006828B90020B0
:10532000E7490870FF2002F0D5F900BF02F08CFEBB
:105330000446E4480068E44908600020E149086048
:10534000204602F085FEE0480068DC490968B0FBB1
:10535000F1F0C0F16400DA49087002F0E1FEFFF7F5
:10536000AFFF142002F07EFAE0E700B587B003201B
:1053700000218022D54BCDE90132CDE903104FF653
:10538000FE703E23D24A0090AFF2950001F079FF03
:1053900006AAD0A13E2002F0DDF807B000BD00242F
:1053A00000BF00BF02F050FE0446C6480068401C23
:1053B000C4490860204602F04BFE02F0B0FEF1E75F
:1053C00000B587B0032000218022C64BCDE9013211
:1053D000CDE903104FF6FF703F23C34A0090AFF2B0
:1053E000410001F04EFF06AAC0A13F2002F0B2F832
:1053F00007B000BD04E0002200F8012B4A1E91B264
:105400000029F8D1704770B5C821BC48FFF7F2FFFA
:1054100000230FE0581C85B203EB8300B74901EB72
:10542000800405EB850001EB80060020207066609B
:10543000581C83B2092BEDD303EB8300AF4901EB7A
:1054400080040020207060600846AD49086070BD8F
:1054500070B54FF4E761AB48FFF7CCFF4FF48071B4
:105460009448FFF7C7FF002413E0601CC5B2C4EBEB
:10547000C40000EB4000A34901EB8003C5EBC5006D
:1054800000EB400001EB80065E619FA0D864601CC9
:10549000C4B2152CE9D3C4EBC40000EB4000994919
:1054A00001EB80030020586197A0D8640020974941
:1054B000086094489649086070BD0021954A1170B3
:1054C000002004E00021944A1154411CC8B208286D
:1054D000F8D30021914A1170914A1170914A1160DC
:1054E000914A116070470020904908609049087007
:1054F0009049087090490870904908709049086078
:1055000070490860704908606C4908606A49087011
:10551000704710B502F0FCFDFFF7E5FFFFF7CDFF88
:10552000FFF796FFFFF76FFF00F0ECFE01F0C9FBFD
:10553000FFF746FFFFF719FF02F01AFD02F0ECFD3E
:1055400010BD7E480078012808D179480078FF28EE
:1055500004D277480078401C754908707047794933
:105560006C4A1278885C6C49095C764A515C01EBA4
:10557000C0016B4A1170704710B500246F48007865
:10558000012830D102F060FD04466948007820B15E
:1055900067480078401E6649087065480078F8B989
:1055A00064480078E0B9FFF7DAFF42485C490978BF
:1055B00050F821005B49086059480078574909783C
:1055C00088420DD057480068806B401C55490968D7
:1055D00088635B480068401C5949086002F054FD2C
:1055E000204602F035FD10BD10B500245348007868
:1055F000012811D102F028FD04464D48007840B939
:105600004C480078FF2804D24A480078401C494999
:105610000870204602F01CFD10BD10B5002402F0F9
:1056200013FD044642480078F8B942480078E0B9D2
:10563000FFF795FF1F483A49097850F8210039498A
:105640000860374800783549097888420DD03548D8
:105650000068806B401C33490968886338480068DB
:10566000401C3749086002F008FD204602F0F0FCBB
:1056700010BD10B500243148007801286FD102F028
:10568000E3FC04462B48007880B12A480078401E8D
:10569000284908700846007848B92548007838B984
:1056A000204602F0D5FCFFF7B8FF58E054E04FE089
:1056B0004AE0000090A10020DC040020D404002077
:1056C000D0040020EC040020D8040020909D00208D
:1056D0008C9F002075432F4F532D494920537461EF
:1056E00074000000909F00208CA1002075432F4F74
:1056F000532D49492049646C65000000789C0020C6
:10570000C804002090A200203F000000FC040020FC
:10571000F4040020E1040020E2040020DF04002063
:10572000E0040020F8040020F00400200805002018
:10573000DD040020DE040020EB040020EA04002049
:10574000C4040020BE860208204602F081FC06E068
:10575000204602F07DFC02E0204602F079FC10BDFC
:1057600010B5EB48007890B9FFF7F9FEE9480078EA
:10577000E9490870E948E749097850F82100E84903
:10578000086008460068E749086002F064FC10BD44
:1057900010B50024022002F065F802F055FC044622
:1057A0000020E1490860204602F052FC142002F07B
:1057B00059F802F049FC0446DB480068DB49086000
:1057C0000120DB490870204602F042FC10BD70B594
:1057D000002602F07DFD02F037FC0646D548006841
:1057E000401CD4490860304602F032FCC8480078BA
:1057F000012853D1D048007820B1012804D00228D4
:1058000009D103E001250BE0002509E00125012075
:10581000C949087004E001250020C749087000BF8D
:1058200000BF05B970BDC548046833E002F00CFC48
:105830000646E06A50B3E06A401EE062E06A28BBB8
:1058400094F8300000F0370040B114F8300F00F049
:10585000C800207001206070303C02E0002084F815
:10586000310094F8300000F0080078B93434A078A2
:10587000B34909780843B24908702078B149085CF7
:105880006178084314F83419AE4A505464693046BC
:1058900002F0DEFB94F832003F28C7D100BFC1E719
:1058A00040F223107047704710B590F8342001F192
:1058B0000B039B5C90F83540A34301F10B04A35408
:1058C00023469B5C23B98B7A90F83640A3438B72B6
:1058D00010BD2DE9F04F05460F4690469946A87A2F
:1058E00099490E5C05F10B00805D11F800B00BEBDF
:1058F000C60000F0FF0A894850F82A4000202034F2
:10590000E0602760207C20EA0800207484F8119071
:10591000207C203C00F0080068B994F836008849E3
:1059200009780843864908708648805D94F83510E8
:1059300008438449885529462046FFF7B5FF50465D
:10594000BDE8F08F10B5774A1268D061754A1268C9
:1059500092F8343000F10B02D25C724B1B6893F862
:1059600035301A436F4B1B6893F8344000F10B033A
:105970001A55827A6B4B1B6893F836301A43827241
:10598000684A126892F834106E4A525C654B1B6884
:1059900093F835309A436B4B5A541A46525C42B9CD
:1059A000604A126892F83630654A12789A43644B1E
:1059B0001A7010BD014600228A72002005E0002303
:1059C00001F10B021354421CD0B20828F7D37047E0
:1059D00005E011F8013B00F8013B531E9AB2002A82
:1059E000F7D170470146002002E0491C421CD0B2AA
:1059F0000A78002AF9D170472DE9F84F05460F467D
:105A000090469946DDE90AAB0020009002F01CFBAD
:105A100000904E480468002C75D0183454F8040CDB
:105A20004A490860009802F013FB44F8187CA576F8
:105A3000002020766076606144F814BC44F80CAC19
:105A400044F8108C0C9824F8080C24F8069C0020CC
:105A5000E077E810207705F00700E076217F01204D
:105A60008840A077E17E0120884060770020606058
:105A7000E060A0602062A0626062E0622063AFF23A
:105A800078306063183C002606E0002104F15000E5
:105A900040F82610701CC6B2002EF6D0204602F048
:105AA00016FC204602F039FB02F0CEFA00901B48AB
:105AB00040F825402148006860610020A0611F482F
:105AC000006810B11D48006884611C4804603434CB
:105AD000A0781B49097808431949087020781949AA
